:020000040800F2
:10000000680700209D010008EF2600085D1A00081F
:10001000ED2600084D090008A92D00080000000089
:100020000000000000000000000000008D27000814
:100030003D0B0008000000002D0200089127000879
:10004000B7010008B7010008B7010008B7010008B0
:10005000B7010008B7010008B7010008B7010008A0
:10006000B7010008B7010008B7010008B701000890
:10007000B7010008B7010008B7010008B701000880
:10008000B7010008B7010008B7010008B701000870
:10009000B7010008B7010008B7010008B701000860
:1000A000B7010008B7010008B7010008B701000850
:1000B000B7010008B7010008B7010008B701000840
:1000C000B7010008B7010008B7010008B701000830
:1000D000B70100089D2D0008B7010008B70100080E
:1000E000B7010008B7010008B7010008B701000810
:1000F000B7010008B7010008B7010008B701000800
:10010000B7010008B7010008B7010008B7010008EF
:10011000B7010008B7010008B7010008B7010008DF
:10012000B7010008B7010008B7010008B7010008CF
:10013000B7010008B7010008B7010008B7010008BF
:10014000B7010008B7010008B7010008B7010008AF
:10015000B50A0008B7010008B7010008B701000898
:10016000B7010008B7010008B7010008B70100088F
:10017000B7010008B7010008B7010008000000003F
:10018000B7010008B7010008DFF80CD000F02EFB23
:10019000004800472D3700086807002006488047C0
:1001A00006480047FEE7FEE7FEE7FEE7FEE7FEE75C
:1001B000FEE7FEE7FEE7FEE7552800088901000894
:1001C00072B634483449026841EA0201016033489A
:1001D0004FF00101016032484168016001688A887E
:1001E0004FF0100342EA03028A80D1F800C00CF1FC
:1001F000240C0CF1040CBCE8FF008CF309884FF0D0
:10020000020C8CF31488AE4662B63047EFF31080D0
:1002100072B67047EFF3108062B6704780F31088B3
:10022000704720484FF0805101607047EFF3108C09
:1002300072B61D4A126822B12DE900509047BDE800
:100240000050EFF309801EF0100F08BF20ED108B57
:1002500040F804ED20E9F01F114D4FF010082E6812
:100260003060B78827EA0807B78068682860878801
:1002700047EA080787800168B1E8F01F51F804EBEE
:100280001EF0100F08BFB1EC108B81F309888CF3BE
:100290001088704720ED00E00000FFFF60000020A4
:1002A0006400002004ED00E0480000202DE9F05F2C
:1002B0000546002092469B468846064681464024D5
:1002C0001BE0284641464746224600F0F0F85346D8
:1002D0005A46C01A914110D311461846224600F0E2
:1002E000D7F82D1A67EB01084F462246012000215E
:1002F00000F0CEF817EB00094E41201EA4F10104D6
:10030000DFDC484631462A464346BDE8F09F40EAD6
:1003100001039B0703D009E008C9121F08C0042A83
:10032000FAD203E011F8013B00F8013B521EF9D26A
:100330007047D2B201E000F8012B491EFBD2704792
:100340000022F6E710B513460A4604461946FFF7A1
:10035000F0FF204610BD2DE9F04D81EA030404F0C2
:10036000004B21F0004514464FF0000A23F00041F5
:1003700050EA050220D054EA01021DD0C5F30A5705
:100380000246C5F31303C1F31300C1F30A5640F448
:10039000801543F48013A7EB0608101BD64608F21D
:1003A000FD3873EB050002D308F1010801E0921853
:1003B0005B41B8F1000F03DA00200146BDE8F08D83
:1003C00000204FF48011064684460EE0171B73EBA5
:1003D000050705D3121B63EB050306434CEA010C2A
:1003E00049084FEA300092185B4150EA0107EDD10D
:1003F00052EA030012D082EA040083EA05010843AE
:1004000005D0101BAB4106D20122002306E00022DA
:100410004FF0004302E06FF0010253101AEB0600A8
:100420004CEB085110EB0A0041EB0B01BDE8F04D1D
:1004300000F04DB8C1F30A52C1F3130140F2FF338B
:1004400041F480119A4202DA00200146704740F2DE
:1004500033439A42A2F2334202DC524200F027B800
:1004600000F016B830B50B460146002020220124CA
:1004700009E021FA02F59D4205D303FA02F5491B72
:1004800004FA02F52844151EA2F10102F1DC30BD88
:10049000202A04DB203A00FA02F100207047914044
:1004A000C2F1200320FA03F3194390407047202A39
:1004B00004DB203A21FA02F00021704721FA02F30E
:1004C000D040C2F12002914008431946704710B550
:1004D000141E73F1000408DA401C41F10001921867
:1004E0005B411A4301D120F0010010BD2DE9F04D10
:1004F00092469B4611B1B1FA81F202E0B0FA80F265
:1005000020329046FFF7C4FF04460F4640EA0A0037
:1005100041EA0B0153465A46084313D0114653EAA9
:10052000010019D0C8F140025046FFF7C0FF054650
:100530000E46504659464246FFF7AAFF084305D0EB
:10054000012004E020463946BDE8F08D0020054337
:1005500046EAE0762C4337430A986305E40AA0EBA9
:1005600008000022FD0A44EA47540A3002D5002060
:100570000146E9E7010510196941DDE9084500195F
:100580006941BDE8F04DA2E72DE9FE4F804681EAC2
:100590000300C00F0C46009021F0004123F00045FD
:1005A000B8EB0200A94105D24046214690461C46C0
:1005B0000B46024623F00040104347D0270DC7F3F7
:1005C0000A00C3F30A510290401A019040286BDAE6
:1005D000C3F3130040F4801B0098924620B100231F
:1005E000D2EB030A63EB0B0B01985946C0F14002B2
:1005F0005046FFF74DFF06460D4650465946019AB4
:1006000000F006F910EB08006141002487EA11525E
:1006100084EAE7731A4340D0009A62B3019A012A30
:100620004FEA075215DC001B61EB02014FF000425C
:1006300002EA0752CDE90042001C41F58011324622
:100640002B46FFF753FF03B0BDE8F08F404621462D
:10065000F9E7001B61EB0201001C41F58013001853
:100660005B412018A2F5001747EB030140EAD57063
:10067000B6196D4111E06D084FEA360645EAC075BE
:100680004FEA0752001B61EB0201001C41F580118B
:1006900049084FEA30000019514132462B4603B059
:1006A000BDE8F04FFFF713BF009801224000002380
:1006B000D0EB020263EBE073009821464FEAE0744E
:1006C000B8EB000061EB0401E9E783F000435BE76E
:1006D00081F0004158E72DE9FE4F81EA030404F060
:1006E000004421F0004100944FF0000B23F0004340
:1006F00050EA01045ED052EA03045BD0C3F30A540B
:10070000C1F30A552C44A4F2F3340194A0FB025423
:10071000C1F3130141F48011C3F3130343F48013B5
:1007200001FB024400FB034E840A970A44EA815409
:1007300047EA8357A4FB076802958D0A05FB0785E6
:100740004FEA932C04FB0C542705029D4FEA0658F0
:1007500047EA1637B5EB08056EEB070C870E920ECD
:1007600047EA811742EA8312A7FB0201B6EB0B01AD
:1007700064EB00042B0D43EA0C335E1844EB1C5071
:10078000DA465146E7FB0201C5F313044FEA0B3387
:1007900043EA14534FEA0432019C43EA0603A4F1EE
:1007A0000C040294009CCDE900B4FFF79FFE03B057
:1007B000BDE8F08F00200146F9E7000030B5041EC7
:1007C00071F1000404DB4FF00044404264EB01018E
:1007D000141E73F1000405DB1C464FF00043524227
:1007E00063EB0403994208BF904230BD064C074DAD
:1007F00006E0E06840F0010394E8070098471034F1
:10080000AC42F6D3FFF7C4FCC44B0008E44B00082D
:10081000202A06DBCB17203A41FA02F043EAE073C4
:1008200006E041FA02F3D040C2F1200291400843B1
:100830001946704710B586B01F4801F061FA10B133
:100840001EA002F0B3FA23A00490254800900520D2
:10085000ADF8040018484FF4806469460C380394DE
:1008600001F05EFC10B11FA002F0A0FA22A00490DB
:10087000244800900620ADF804000F486946083867
:10088000039401F04DFC10B11FA002F08FFA23A0D9
:100890000490264800900720ADF8040006486946F9
:1008A000001F039401F03CFC10B121A002F07EFA7D
:1008B00006B0002010BD00000C000020B4B4BDA89C
:1008C000B4AEBFDABBA5B3E2CBF8CAA7B0DC200D4B
:1008D0000A0000004C4544305F5461736B00000017
:1008E00001250008B4B4BDA84C454430C8CECEF1B3
:1008F000CAA7B0DC200D0A004C4544315F54617337
:100900006B00000031250008B4B4BDA84C4544314B
:10091000C8CECEF1CAA7B0DC200D0A0052656164D2
:100920005F44485431315F446174610051270008CD
:10093000B4B4BDA844485431315F52656164C8CE37
:10094000CEF1CAA7B0DC200D0A000000FEE70000CF
:1009500070B515480024016821F440210160016848
:100960000160124D04E0641CE4B2012002F0BEFEFE
:10097000D5F8240210B1642CF5D30DE0642C0BD211
:10098000002404E0641CE4B2012002F0AFFED5F8BC
:10099000240218B1642C04D3012070BD642CF1D35F
:1009A000FAE7002070BD000000180240000043423A
:1009B00010B500F061F8BDE81040FFF7C9BF0000B6
:1009C00070B50024104D04E0641CE4B2012002F074
:1009D0008DFED5F8240208B1642CF5D3002404E080
:1009E000641CE4B2012002F081FED5F8240208B9AB
:1009F000642CF5D3282002F079FED5F824020028D3
:100A000000D0012070BD00000000434270B50020FE
:100A100004464006050EFFF7D3FF641C2843E4B2EA
:100A2000082CF6D370BD2DE9FC410D46064600F0BA
:100A300023F8FFF78DFF10B10120BDE8FC810024F1
:100A40006F46FFF7E3FF3855641CE4B2052CF8D37A
:100A50009DF800109DF801009DF803300A189DF8DC
:100A6000020003441A449DF804309A4201D12970CF
:100A700030700020E1E700000C4810B5016821F457
:100A800040210160016841F480210160084C002090
:100A9000C4F8A402142004F5297402F021FE0120F8
:100AA0002060BDE810401E2002F020BE0018024069
:100AB00000004342014800F055B800006C010020DE
:100AC00001681823CAB2103AB2FBF3F2054B6FF378
:100AD0000901032A9B5CC36500D9091D816508468D
:100AE00070470000A44B000810B5014600208B6938
:100AF0008A6A4FF0C07453B1B3F5005F15D072B17C
:100B0000012A0CD0022A0AD0032A09D104E01AB122
:100B1000012A06D0022A03D1C96AC90100D50120E1
:100B200010BDC96AA142FAD010BD002AF7D0012A2F
:100B3000F2D0022AF3D0032AF3D010BD704790F808
:100B40003510022903D0802141650120704705211D
:100B500080F835100068016821F001010160002073
:100B6000704700002DE9F84304464FF00009CDF826
:100B7000009063484FF41651A56D0068B0FBF1F783
:100B80002E6894F85C10082000FA01F131420FD071
:100B900021680A6852070BD50A6822F004020A602D
:100BA00094F85C108840A860606D40F001006065BA
:100BB00094F85C104FF0010808FA01F0304208D0B8
:100BC00021684969090604D5A860606D40F00200FB
:100BD000606594F85C1004208840304208D0216899
:100BE0000968890704D5A860606D40F0040060655D
:100BF00094F85C1010208840304218D021680968B1
:100C0000090714D5A86020680168490304D5006865
:100C1000000308D5A16C07E00168C90503D4016889
:100C200021F008010160216C09B12046884794F841
:100C30005C1020208840304231D021680968C90604
:100C40002DD5A86094F8350005282068016806D0E5
:100C5000490347D5006800031DD4616C1CE021F0F6
:100C6000160101602068416921F080014161206C1A
:100C700008B9A06C20B12068016821F0080101606A
:100C800094F85C103F208840A86084F8349084F881
:100C90003580216D1FE0E16B09B120468847606D0A
:100CA00000282BD0606DC00714D0052084F83500D3
:100CB0002068016821F0010101600098401C00904B
:100CC000B84203D820680068C007F6D184F8349091
:100CD00084F83580E16C002910D001B02046BDE8D1
:100CE000F04308470168C905D5D4016821F0100117
:100CF000016084F8349084F83580CCE7BDE8F8834F
:100D00001C0000202DE9F041044600F043F906469E
:100D10005CB1002584F83450022084F83500206846
:100D2000016821F0010101600DE00120BDE8F081C2
:100D300000F030F9801B052805D9202060650320CC
:100D400084F83500F2E720680068C007F0D1226817
:100D5000116820480140D4E901031843D4E903365F
:100D60003343184363691843A3691843E36918437D
:100D7000236A18430843616A042903D1D4E90B1399
:100D800019430843106020684069666A20F0070133
:100D900030460E43012704280CD1A06A0643E06ABE
:100DA00040B12046FFF7A0FE20B14020606584F8E6
:100DB0003570BAE7206846612046FFF781FE94F857
:100DC0005C203F2191408160656584F8357000208A
:100DD000ACE700003F8010F02DE9F84FDFF87CB160
:100DE00000224FF001084FF0030A4FF00F090BF1FA
:100DF000040E00BF0B6808FA02F42340A3426ED130
:100E00004D68022D01D0122D0ED1D50800EB850CB6
:100E1000DCF820505607F70E09FA07F6B5430E69BD
:100E2000BE402E43CCF82060066855000F790AFAC0
:100E300005FC07F0030726EA0C06AF4037430760BE
:100E40004E68012E05D0022E03D0112E01D0122E95
:100E50000ED18668CF6826EA0C06AF40374387601C
:100E60004668A6430C79C4F30014944034434460AC
:100E7000C6688C6826EA0C06AC403443C4604C68F3
:100E8000E40065D5364C256845F480452560246826
:100E900022F0030504F480440094324C2E19D6F855
:100EA000084895072F0F09FA07F5AC432E4DA842C5
:100EB00001D1002524E02D4DA84201D101251FE0DC
:100EC0002B4DA84201D102251AE02A4DA84201D19A
:100ED000032515E0284DA84202D1042510E037E093
:100EE000264DA84201D105250AE0254DA84201D191
:100EF000062505E0234DA84201D1072500E008257D
:100F0000BD402543C6F80858DBF800405D464E68F2
:100F10009C43F60300D51C432C60DEF80040754668
:100F20004E689C43B60300D51C432C600B4D08351E
:100F30002C684E689C43F60200D51C432C60074D7C
:100F40000C352C684E689C43B60200D51C432C60BF
:100F5000521C102AFFF44EAFBDE8F88F003C014050
:100F600044380240003001400000024000040240CA
:100F700000080240000C0240001002400014024031
:100F800000180240001C02400AB181617047090448
:100F9000FBE7000001488068704700001000002057
:100FA0000B4810B5016841F400710160016841F41B
:100FB00080610160016841F480710160032000F0EC
:100FC00097F8002000F006F800F024F8002010BD8B
:100FD000003C024070B50D4D04464FF47A712878FC
:100FE000B1FBF0F00A490968B1FBF0F000F01AFB20
:100FF00048B9102C07D200222146501E00F058F8A4
:1010000000206C6070BD012070BD00001000002049
:101010001C0000201F4808B5016841F480410160B0
:10102000006800F4804000901A48001F016841F0F9
:1010300080510160006800F080500090032000F0B3
:1010400057F8002211466FF00B0000F031F8002233
:1010500011466FF00A0000F02BF8002211466FF0E5
:10106000090000F025F800221146501F00F020F87A
:1010700000221146101F00F01BF800221146901E9E
:1010800000F016F80022BDE808401146501E00F09E
:101090000FB800004438024000F01F0201219140C7
:1010A0004009800000F1E020C0F800117047000006
:1010B000F0B40E4B1B680C46C3F30223C3F10705C3
:1010C000042D00D90425191D072901D2002300E0B1
:1010D000DB1E012606FA05F1491E214099409E407B
:1010E000761E16403143F0BC01F002BB0CED00E06F
:1010F000064900F0070208684FF6FF03184040EA6F
:101100000220034A10430860704700000CED00E025
:101110000000FA052DE9F0470E46050065D0DFF81E
:101120001481D8F80000F7B200F00F00B04207D2E7
:1011300088F80070D8F8000000F00F00B04254D1D9
:1011400028683D4C810712D5400703D5206840F43C
:10115000E05020602878000703D5206840F4604004
:1011600020602068A96820F0F000084320602878FB
:10117000C0072DD0304968680839012812D00228EC
:1011800013D0032811D00968890700292DDA2168B6
:1011900021F0030101432160FFF7FCFE814641F28B
:1011A000883A0EE009688903EFE709688901ECE7EE
:1011B000FFF7F0FEA0EB0901514502D90320BDE87D
:1011C000F0872068696800F00C00B0EB810FEFD168
:1011D000D8F80010404601F00F01B14207D907705E
:1011E000006800F00F00B04201D00120E7E7287846
:1011F000400705D52068E96820F4E05008432060E6
:101200002878000706D52068296920F4604040EA64
:10121000C100206000F03CF82168084AC1F30311C6
:10122000515CC840064908600020FFF7D3FE00204B
:10123000C5E70000003C024008380240AC4B000803
:101240001C00002001480068704700001C000020BE
:101250000448054900680968044AC1F38221515CC9
:10126000C84070471C00002008380240BC4B0008F2
:101270000448054900680968044AC1F34231515CD9
:10128000C84070471C00002008380240BC4B0008D2
:10129000154810B5006810F00C02144813D0411026
:1012A000042A0FD0082A0ED10F4C241F226823686D
:1012B00002F03F025B0207D52068C0F38810A0FB54
:1012C000010106E0084610BD2168C1F38811A1FBA9
:1012D00000010023FEF7EAFF2168C1F30141491C28
:1012E0004900B0FBF1F010BD083802400024F400C2
:1012F0002DE9F84F050076D02878DFF8F8B2BE4C1B
:10130000C00749D0DBF800105846C1F3810101291C
:1013100008D00068C0F3810002280AD1201D0068AF
:10132000400206D52068800336D568680028E2D0E0
:1013300032E06868B0F5803F10D0B0F5A02F20688B
:1013400010D020F480302060206820F480202060BD
:101350006868A0B1FFF71EFE06460CE0206840F466
:101360008030F4E740F480202060F7E7FFF712FEBA
:10137000801B642873D820688003F7D50CE0FFF742
:1013800009FE064605E000BFFFF704FE801B642847
:10139000F0D820688003F7D42878DFF860828007CF
:1013A0004FF000093ED5DBF80010584611F00C0F45
:1013B00009D00068C0F3810002280BD18D48001FBE
:1013C0000068400206D42068800715D5E868012827
:1013D00009D111E0E868B8B10120C8F80000FFF7B2
:1013E000D9FD064605E002E1FFF7D4FD801B022887
:1013F000C0D820688007F7D52068296920F0F80058
:1014000040EAC10020600DE0C8F80090FFF7C2FD7F
:10141000064604E0FFF7BEFD801B02281FD82068A7
:101420008007F7D42878000722D5724E744869697E
:101430006C3671B101210160FFF7ACFD074604E095
:10144000FFF7A8FDC01B022809D830688007F7D530
:101450000EE0C0F80090FFF79DFD074605E083E031
:10146000FFF798FDC01B02287ED830688007F7D4AC
:101470002878400768D5DFF87CA100270AF1380AF0
:10148000DAF80000C0000BD4DAF8001041F0805107
:10149000CAF80010DAF80000012700F08050009030
:1014A000584E3068C00510D4306840F48070306009
:1014B000FFF770FD009005E0FFF76CFD0099401A02
:1014C000022851D83068C005F6D54A4EA86868365B
:1014D00001280FD00528306810D020F001003060BE
:1014E000306820F004003060A868B8B1FFF752FD02
:1014F00000900FE0306840F00100F4E740F0040095
:101500003060F7E7FFF746FD0099411A41F2883055
:10151000814264D830688007F4D50EE0FFF73AFDC9
:10152000009007E0FFF736FD0099411A41F288303C
:10153000814254D830688007F4D42FB1DAF8001013
:1015400021F08051CAF80010A869C0B3DBF8001080
:10155000C1F3810102294AD00228484607D0C8F8C1
:101560006000FFF717FD00E039E005463AE0474626
:10157000C8F86000FFF70EFD064604E0FFF70AFD1D
:10158000801B02282BD820688001F7D4D5E90701F9
:101590000843A96A1C4A490802EB01416A6A41EA08
:1015A0008211084395F82C1040EA01611148001F90
:1015B000016001203866FFF7EDFC054605E014E008
:1015C000FFF7E8FC401B022809D820688001F7D506
:1015D0000BE000BFFFF7DEFC401B022802D903200E
:1015E000BDE8F88F20688001F4D40020F8E70120DE
:1015F000F6E7000008380240003802400000474289
:10160000800E4742007000400000FFFF4FF0E021D5
:101610000428086903D020F004000861704740F0F6
:101620000400FAE710B5401EB0F1807F01D301201D
:1016300010BD4FF0E02460610F21601701F058F8F1
:101640000020A06107202061002010BD30B590F877
:101650003820012A20D0012280F83820022380F887
:10166000393003685C6824F070045C6003685C686F
:101670000D682C435C6003689C6824F080049C60C7
:1016800003689C6849680C439C6080F839200021FD
:1016900080F83810084630BD022030BD10B5040077
:1016A00003D094F8390010B107E0012010BD0020EC
:1016B00084F83800204600F00DF8022084F8390044
:1016C000211D206801F0F0F8012084F83900002085
:1016D00010BD000008B500680649884208D10648D8
:1016E000016841F002010160006800F00200009012
:1016F00008BD00000004004040380240022180F88C
:10170000391001680A6842F001020A60012180F87C
:10171000391000207047022180F8391001680A6AE8
:1017200041F211131A4207D10A6A9B101A4203D1DF
:101730000A6822F001020A60012180F839100020B5
:10174000704770B5044690F83800012817D001257D
:1017500084F83850022084F839002068826822F02A
:10176000770222F47F4282600868502837D00DDC6F
:10177000202859D005DC88B3102841D151E002203F
:1017800070BD302853D040283AD13FE060282ED099
:1017900070280BD0B0F5805F03D0B0F5005F2FD17B
:1017A00010E02068816821F0070115E0CB68D1E9DD
:1017B0000121206801F0D8F82168886840F077009E
:1017C00088601DE0CB68D1E90121206801F0CCF8E8
:1017D0002068816841F48041816011E01EE0CA68A0
:1017E0004968206801F0D2F85021206806E0CA68F4
:1017F0004968206801F0DBF86021206801F0BEF83C
:1018000084F83950002084F8380070BDCA684968EF
:10181000206801F0BBF840212068EFE70021206834
:10182000ECE710212068E9E720212068E6E7302175
:101830002068E3E77047000070B50268044610684E
:10184000D168536910F00F0F50D003F0010501F477
:10185000907635435DD0C20705D0CA0503D5E26B4B
:1018600042F00102E263420705D5DA0703D0E26BDA
:1018700042F00202E263820705D5DA0703D0E26B89
:1018800042F00402E263020705D5DA0703D0E26BF7
:1018900042F00802E263E26B002A33D0800604D5EE
:1018A000880602D5204601F0AAF820684069E16B5D
:1018B000C0F38010090700D428B3204601F091F846
:1018C0002068416949061AD5416921F0400141610A
:1018D000606BA0B11B490165606BFFF730F9002810
:1018E00010D0606B016DBDE870400847830610D5CD
:1018F0008B060ED52046BDE8704001F080B820462A
:10190000FFF798FF70BD2046FFF794FF0020E063CB
:1019100070BD030606D50B0604D52046BDE8704011
:1019200001F00ABA4006F3D54806F1D5D168204641
:1019300021F04001D160202184F8391000F08DF8A9
:1019400070BD0000D329000870B5040004D094F8DD
:101950003900002510B106E0012070BD84F8385030
:10196000204600F023F8242084F839002068C1685C
:1019700021F40051C160204601F088F82068016917
:1019800021F4904101612068416921F02A014161FF
:101990002068C16841F40051C160E563202084F8EB
:1019A000390084F83A00002070BD000070B506468A
:1019B0000068204986B0884239D11F480025016857
:1019C00041F0100101600068694600F010000590C8
:1019D0004FF4C0600090022001900120029003208B
:1019E0000390072004901548FFF7F6F9154C1448AA
:1019F00020604FF00060C4E901054014C4E90350C1
:101A00006561A561E561256220466562FFF77AF9A7
:101A100018B17A210CA001F0C8F9746300221146B4
:101A20002520A663FFF744FB2520FFF735FB06B012
:101A300070BD000000100140443802400000024028
:101A4000886402406C0100202E2E2F5372632F7584
:101A5000736172742E63000070477047FEE742188E
:101A6000491E521E824202D922EA01007047884371
:101A70007047000038B5054D0C4604992D6815B126
:101A800000912146A847002038BD0000D00000206A
:101A900010B520491020086020491F48086002F056
:101AA000BDF8040007D01EA001F080F921461EA059
:101AB00001F07CF925E002F0D3FD040004D018A069
:101AC00001F074F91FA01AE002F034FE02F0CAFA25
:101AD000002817D102F0ACF8002813D102F0AAF9BF
:101AE000040004D00EA001F061F91BA007E002F091
:101AF000C7FB040007D00AA001F058F91BA001F0B1
:101B000055F9204610BD03F003F8BDE8104002F07F
:101B100061B800005400002068070020E8000020A1
:101B20005B4552525D2000006F734D656D537973B4
:101B300074656D496E6974206572726F72202564D8
:101B40000A0000006F735461736B496E69742065FD
:101B500072726F720A0000006F7351756575654986
:101B60006E6974206572726F720A00006F7353772A
:101B7000546D72496E6974206572726F720A00004A
:101B80004268C1E9000242681160416070474268E2
:101B9000C1E9000242681160416070474268C1E9D2
:101BA000000242681160416070474268C1E900026A
:101BB0004268116041607047D0E900121160D0E9BD
:101BC00000124A6000214160016070470068FFF721
:101BD000D7BF70B505000C464FF000000CD0002CAC
:101BE0000AD0284602F0C1FA002805D1214628462D
:101BF000BDE8704001F070BE70BD01F0FDBE70B573
:101C00000C4605000AD04CB102F0E0FA012807D0DA
:101C10002146284601F00EFF012801D0012070BDA9
:101C2000002070BD2DE9F84FDFF898A00F460500A1
:101C3000DAF80040A04603D0502F01D9A80702D0FF
:101C40000120BDE8F88FFEF7E1FA8146EE1918E0B1
:101C5000A068A542204401D8A64203D885420ED2EE
:101C600086420CD318A001F0A1F8A06832462044A7
:101C700000902346294616A001F098F81BE0A046E4
:101C8000E468002CE4D13946284601F055FF90B1B4
:101C9000B7F5805F03D3284602F0C8FA58B1DAF8E6
:101CA000001061B1C8F80C500020E8604846FEF70B
:101CB000B5FA0020C5E74846FEF7B0FAC0E7CAF813
:101CC0000050F1E7E40000205B4552525D20000027
:101CD000706F6F6C205B25702C2030782578292060
:101CE000636F6E666C696374207769746820706FC7
:101CF0006F6C205B25702C2030782578290A000035
:101D000038B5050014D0FEF781FA174902460024C1
:101D1000486888420FD11046FEF780FA134D1449E7
:101D200000232A4613A00094FFF7A4FE284638BDDE
:101D30000E48401E38BDD0E900131960D0E90013E9
:101D40004B6020F8064C012100F8081D00F1080145
:101D50008482C0E903148160406828601046FEF761
:101D60005DFA002038BD0000B0000020031D000215
:101D7000F8C3B2A16F735F756E737065636966694E
:101D8000635F66696C6500002DE9F84300263D4DF0
:101D9000DFF8F48089460F2804D300232C462A4616
:101DA000009666E0394900EB4000096801EBC00489
:101DB000FEF72CFA0746207848B101F02BFF50B10E
:101DC0003846FEF72BFA2F48001DBDE8F883384649
:101DD000FEF724FAE1E72E480568608840B12169E2
:101DE000A9420BD1401C60803846FEF717FA46E046
:101DF000012060802561E888A082F5E7B9F1000F35
:101E00000ED02448008888B11E4C23A0641D00F029
:101E1000CDFF23A000F0CAFF3846FEF7FFF925E00A
:101E20003846FEF7FBF91748C01CCEE7EC61206985
:101E3000E988C2888A4201D902F092FC4A46082108
:101E400004F1080002F09CFD3846FEF7E7F900F0C7
:101E500029F92879400612D5FEF7D8F9A98821F08A
:101E60004001A980FEF7DAF9064CA41D00232246A2
:101E70000096414613A0FFF7FDFD2046A5E7002090
:101E8000A3E70000011D0002F8C3B2A1AC000020CE
:101E900064000020440000205B4552525D20000099
:101EA0002121214C4F535F4552524E4F5F4D5558A3
:101EB0005F50454E445F494E5F4C4F434B212121BB
:101EC0000A0000006F735F756E7370656369666901
:101ED000635F66696C6500002DE9F843254980461B
:101EE00000EB4800096801EBC004FEF78FF90026FB
:101EF000214DDFF888900746B8F10F0F08D22078FF
:101F000030B11F486188026811B1206990420CD03D
:101F10003846FEF783F900232A46494619A0009661
:101F2000FFF7A8FD2846BDE8F883491E0904090CFF
:101F3000618003D03846FEF771F919E0C288A18AA2
:101F40008A4201D002F00CFCE06804F108018842EA
:101F5000F0D00121618028382061C188A182082148
:101F6000C66102F033FD3846FEF758F900F09AF8E2
:101F70000020D8E7AC000020011D0002F8C3B2A188
:101F8000640000206F735F756E73706563696669C6
:101F9000635F66696C6500002DE9F0470D4608989F
:101FA0005FEA020900F104018FB206D04FF6FB711F
:101FB000884205D92648BDE8F08725480930FAE768
:101FC000E5B1D8B1DFF88C8005FB07F1D8F8000047
:101FD000FFF7FFFD060014D0FEF718F91E4A014670
:101FE0005068904210D10846FEF718F93146D8F8EB
:101FF0000000FFF704FE1648401CDCE714480A30D6
:10200000D9E71348401ED6E7D0E90023A0F11C040D
:102010001A60D0E900235360E58027810123266000
:102020000022A38022826582A281E281A0F10802BF
:1020300052601260406000600830406000600846F6
:10204000FEF7ECF861890020C9F80010B3E7000042
:1020500003060002E8000020BC000020F8B51C4682
:1020600015460E46074601F0C7FF002806D100219D
:102070002B4632463846009401F00AFFF8BD7FB582
:1020800082B01C460D46064604AA01F0CFFF002888
:1020900006D1032104AB2A463046009401F0F8FE35
:1020A00006B070BD10B5FEF7B1F8044601F04CFE65
:1020B0000A49283848600968814202D008480088E7
:1020C00020B12046BDE81040FEF7A8B82046FEF734
:1020D000A5F8BDE81040FEF7A4B800006400002099
:1020E0004400002010B502F0A5FC040006D005A0B5
:1020F00000F05CFE05A000F059FE01E0FEF760F87C
:10210000204610BD5B4552525D2000006F7354693C
:10211000636B5374617274206572726F720A00008F
:1021200070B5044600F034F8002829D1174D206816
:10213000C0EBC000E96800EB400001EB8004FEF753
:1021400065F80646A08820F0020040F00400A08058
:10215000E18804F1280001F0B3FD01F0F5FD05F17F
:10216000200128384860EA695AB12A884AB90968C2
:10217000814206D03046FEF751F801F071FF002091
:1021800070BD3046FEF74AF8F9E700004400002031
:102190002DE9F0470D465FEA00084FF0FF3A16D0F0
:1021A000C5B12869C8B12968D1B1AA8846481F2A93
:1021B0000BD802D1454A914207D14549454AE868C2
:1021C000511A88420FD940481D30BDE8F0873E487B
:1021D000001DFAE73C48801EF7E73B48801CF4E707
:1021E0003948401CF1E710B94FF43470E860082119
:1021F000FFF735FCE860B0F5987F02D23248C01C8A
:10220000E3E7FEF703F806464FF00009324C10E012
:10221000A1F128070846FFF7CFFC2F4807F1280156
:102220000838FFF7ADFC2A48F968FFF7E8FCC7F863
:102230000C906168A142EBD127490839486888426F
:1022400002D1214C0E3439E0A0F12804FFF7B4FC90
:102250003046FDF7E3FF276908221D48E968FFF7CC
:10226000CCFC060020D002463846E96802F058FC53
:102270002060A868E6602062E868C4F81890C4F896
:102280001C900221A060A180A988E1802968C4F87F
:102290003CA0C4F8489061612969C4F8509061621B
:1022A0000020C8F8007090E7FDF7B0FF06460A4826
:1022B00004F128010838FFF763FC084C3046FDF7AD
:1022C000ADFF204681E7000003020002D13B000879
:1022D00068070020000001207C00002000020003AD
:1022E00070B5054601F096FC08B1154870BD15485B
:1022F000008808B1144870BDEDB1FDF787FF114C9F
:10230000064620342068283001F0BEFC2068818811
:1023100021F0040181802946206802F047F92068F5
:10232000818841F0200181803046FDF777FFFFF77B
:10233000B9FE002070BDBDE8704000F0A3B80000F9
:102340000D020003440000200E0200022DE9F047B8
:10235000494D07464FF0FF3A6869874202D1474826
:10236000BDE8F087A869874202D144480D30F7E7FD
:102370002869874202D341480D38F1E7FDF746FF4F
:102380008046C7EBC700E96800EB400001EB800422
:10239000A688F00706D0394C40460A3CFDF73EFFC0
:1023A0002046DDE7F0064FF0000903D5288808B184
:1023B000A5F80090700708D504F1280001F064FC2E
:1023C000A08820F00400A08007E042F20800064246
:1023D00003D004F12800FFF7EFFB16F0600F02D0E6
:1023E000204602F05FFBA08820F0020040F00100D0
:1023F000A080C4F83CA0C4F8489001F0A5FC1E4E93
:102400004FF0010A2036283870602079C0061FD5A9
:1024100004F1280106F11800FFF7D8FB2869E968E4
:10242000C0EBC00000EB400001EB800030600761B2
:102430003168A08888803068E168C160616A416263
:10244000A4F804A04046FDF7E9FE01F009FE10E003
:102450000948A4F804A004F128013030FFF790FBEC
:102460000748E168FFF7CBFB4046C4F80C90FDF746
:10247000D5FE002074E70000440000201402000292
:102480006807002070B5194CA4F120022068126979
:102490000169914201D3164870BD0079400701D40B
:1024A000002070BDFDF7B2FE05462068C08801F02F
:1024B00039FC012813D920682830FFF77DFB2068FC
:1024C000818841F0040181802068C188283001F0B2
:1024D000F7FB2846FDF7A2FEFFF7E4FDE0E72846FC
:1024E000FDF79CFE0248093070BD0000640000202A
:1024F000070200020149D1E900017047980000205D
:102500000A4C4FF400764FF47A750022314620468B
:10251000FEF73AFD2846FFF7E3FE0122314620464A
:10252000FEF732FD2846FFF7DBFEEEE7001402401F
:102530000A4C4FF480664FF49675002231462046CF
:10254000FEF722FD2846FFF7CBFE0122314620464A
:10255000FEF71AFD2846FFF7C3FEEEE7001402401F
:10256000094808B5016841F4800101600068002253
:1025700000F48000009011464420FEF799FDBDE86C
:1025800008404420FEF788BD303802402DE9F04174
:10259000234886B00025016841F0200101600168F0
:1025A00001F020010591016841F08001016001689E
:1025B00001F080010591016841F0010101600168AD
:1025C00001F001010591016841F0400101600068DE
:1025D000144F00F040004FF4C064059000222146E3
:1025E0003846FEF7D1FCDFF840807E1500223146E8
:1025F0004046FEF7C9FC00940124CDE90145694637
:1026000038460395FEF7E8FB0220CDE90240CDE90C
:10261000006469464046FEF7DFFB06B0BDE8F08186
:1026200030380240001402400018024010B517482C
:1026300086B015490160532141601021816001215C
:102640000024C0E90314FFF729F818B13E2110A0B7
:1026500000F0ABFB4FF48050009069460B48FFF749
:1026600070F818B144210AA000F09FFB049404A95B
:1026700006480594FEF7EAFF002803D04B2104A08A
:1026800000F093FB06B010BD00040040F0000020F5
:102690002E2E2F5372632F74696D2E63000000007D
:1026A0000D4810B50B4901604FF4E1314160002144
:1026B00081600C22C160C0E904128161C161FFF731
:1026C00043F9002805D0BDE81040502103A000F0D8
:1026D0006CBB10BD001001402C0100202E2E2F538A
:1026E00072632F75736172742E630000FEE770478A
:1026F0000907090E002806DA00F00F0000F1E020BB
:1027000080F8141D704700F1E02080F80014704735
:102710000FB410B5A0B023AB80216846229A00F018
:1027200055FB094C4FF0FF312068FFF72DFB18B91E
:10273000694606A000F03AFB2068FFF7CDFB20B009
:1027400010BC5DF814FB00000C0000202573000095
:102750001CB54FF4FA7401A96846FEF764F99DF8B8
:1027600004209DF8001003A0FFF7D2FF2046FFF7DA
:10277000B7FDF0E70D0ACEC2B6C8A3BA256409CAF0
:10278000AAB6C8A3BA25640D0A000000704700006D
:102790000648006808B102F039B90548D0E90012CE
:1027A000491C42F10002C0E9001270478C00002071
:1027B0009800002030B5254893B00025016841F00D
:1027C00080510160006800F080501190204801683D
:1027D00041F4804101600068022400F480401190BF
:1027E0000120039010200490009406940820CDE965
:1027F0000750A820CDE9090404200B906846FEF795
:1028000077FD00B1FEE70CA90F2081E831004FF4FD
:10281000A0500F904FF48050109005210CA8FEF7A7
:1028200079FC00B1FEE7FEF70DFD4FF47A71B0FBC5
:10283000F1F0FEF7F7FE0420FEF7E8FE0022114655
:10284000501EFEF735FC13B030BD0000403802408A
:10285000007000401048016841F4700101600F48A9
:10286000016841F0010101600C4A00210832116049
:1028700002680B4B1A400260031D0A4A1A60026884
:1028800022F48022026005480C300160024958069B
:10289000803908607047000088ED00E00038024091
:1028A000FFFFF6FE10300024F0B50268234B244DE4
:1028B000244E254F254C4FF0804C984209D060455E
:1028C00007D0A84205D0B04203D0B84201D0A04200
:1028D00004D122F0700E4A6842EA0E0298421BD0E0
:1028E000604519D0A84217D0B04215D0B84213D0D5
:1028F000A04211D0164DA8420ED0164DA8420BD0C2
:10290000154DA84208D0154DA84205D0144DA84237
:1029100002D0144DA84203D122F44075CA682A435C
:1029200002608A68C2620A688262984201D0A0424C
:1029300001D10969016301214161F0BD000001403D
:102940000004004000080040000C0040000401406A
:102950000040014000440140004801400018004090
:10296000001C00400020004010B5846842EA0322A9
:1029700024F47F440A432243826010BD826822F01F
:1029800070020A4342F007018160704710B5036A84
:10299000046A24F001040462846924F0F00444EA27
:1029A000021423F00A020A438461026210BD10B5CA
:1029B000036A23F0100303628369046A23F47043FB
:1029C00043EA023224F0A00343EA0111826101626A
:1029D00010BD10B5806B0021C185C184FEF72AFFB0
:1029E00010BD0168CA6822F49072CA6001684A6921
:1029F00022F001024A61202180F83A10704710B598
:102A000090F83A10222901D0022010BD8168B1F55A
:102A1000805F11D00169002901681FD0496801F069
:102A20007F03816A4A1C82620B70C18D491E0904B2
:102A3000090CC18518D026E00269816A002A026863
:102A4000526805D0D2B20A80816A491C8162ECE7E3
:102A5000C2F308020A80816A891CF7E74A68816A22
:102A60004B1C83620A70E0E70168CA6822F4907226
:102A7000CA6001684A6922F001024A61202180F897
:102A80003A10FEF7E9FF002010BD00002DE9F041EB
:102A900004460068016921F44052E1681143016174
:102AA0002168C86849F20C6290432369A268E5690D
:102AB0001A4363692B431A430243CA602168486979
:102AC00020F44072A06910434861E1696425B1F5C2
:102AD000004F9748974A21684FF032083FD0914203
:102AE00001D081427CD1FEF7C3FB00EBC00101EBBA
:102AF000001061688900B0FBF1F6FEF7B9FB00EB4E
:102B0000C00101EB001061688900B0FBF1F0B0FB7F
:102B1000F5F06FF01801484306EB800108EB011057
:102B2000B0FBF5F000F0F006FEF7A2FB00EBC001F1
:102B300001EB001061688900B0FBF1F0B0FBF5F02B
:102B400006EB0016FEF794FB00EBC00101EB001052
:102B500061688900B0FBF1F7FEF78AFBD2E0914291
:102B600001D081423DD1FEF783FB00EBC00101EBB8
:102B7000001061684900B0FBF1F0B0FBF5F0060110
:102B8000FEF776FB00EBC00101EB00106168490025
:102B9000B0FBF1F7FEF76CFB00EBC00101EB00109E
:102BA00061684900B0FBF1F0B0FBF5F06FF018017F
:102BB000484307EB800108EBC100B0FBF5F000F0E3
:102BC000F80006EB4006FEF753FB00EBC00101EBFB
:102BD000001061684900B0FBF1F7FEF749FB3CE0EB
:102BE00055E0FEF735FB00EBC00101EB001061681A
:102BF0004900B0FBF1F0B0FBF5F00601FEF728FB51
:102C000000EBC00101EB001061684900B0FBF1F777
:102C1000FEF71EFB00EBC00101EB001061684900EC
:102C2000B0FBF1F0B0FBF5F06FF01801484307EB93
:102C3000800108EBC100B0FBF5F000F0F80006EBF6
:102C40004006FEF705FB00EBC00101EB00106168D8
:102C50004900B0FBF1F7FEF7FBFA00EBC00101EB16
:102C6000001061684900B0FBF1F0B0FBF5F06FF0C7
:102C70001801484307EB800108EBC100B0FBF5F0F9
:102C800000F00700216830448860BDE8F081FEF75D
:102C9000DFFA00EBC00101EB001061688900B0FBB6
:102CA000F1F6FEF7D5FA00EBC00101EB0010616808
:102CB0008900B0FBF1F0B0FBF5F06FF0180148436C
:102CC00006EB800108EB0110B0FBF5F000F0F00618
:102CD000FEF7BEFA00EBC00101EB0010616889004D
:102CE000B0FBF1F0B0FBF5F006EB0016FEF7B0FA22
:102CF00000EBC00101EB001061688900B0FBF1F747
:102D0000FEF7A6FA00EBC00101EB00106168890034
:102D1000B0FBF1F0B0FBF5F06FF01801484307EBA2
:102D2000800108EB0110B0FBF5F000F00F00A9E7FF
:102D3000001401400010014090F83910212901D001
:102D4000022070478168B1F5805F016A0BD04A1C90
:102D50000262026809785160C18C491E0904090C9D
:102D6000C1840ED017E009880268C1F308015160E0
:102D700001690029016A02D0491C0162ECE7891C43
:102D8000FBE70168CA6822F08002CA600068C16877
:102D900041F04001C1600020704700000148FEF78B
:102DA0004BBD00002C010020FEE7FEE70FB4054BF1
:102DB00010B503A9044A029800F0F0F810BC5DF8C1
:102DC00014FB000019370008EC0000207CB5044615
:102DD00000201D46164600290BD0491ECDE90041B2
:102DE000044B6A462946304600F0D8F8009A002184
:102DF00011707CBDCB36000802E008C8121F08C164
:102E0000002AFAD170477047002001E001C1121F6B
:102E1000002AFBD1704700002DE9FF5F82B000213E
:102E2000DDE90430020DDDF840B0034318D044F66C
:102E30001050A2F2FF3242431514119801281FD0FE
:102E4000A5EB0B00401C5FEA000A4FF000064E4F56
:102E5000DFF83891B046504615D5CAF1000413E0AA
:102E6000119801244AA3012801D16FEA0B010298AD
:102E7000119AC0E90031C0E9024206B0BDE8F09FF6
:102E8000CBF10000DFE704460021404A491842EB3D
:102E90000450CDE9001012E0E00707D032463B466F
:102EA00040464946FDF717FC8046894632463B4678
:102EB00010461946FDF70FFC06460F466410002C1D
:102EC000EAD1DDE90401DDE90023BAF1000F06DAF9
:102ED000FDF701FC42464B46FDF7FDFB05E0FDF723
:102EE0003AFA42464B46FDF736FA04460E460022B1
:102EF000284BFDF763FC03D84FF0FF30014607E095
:102F00000022254B20463146FDF73EFBFDF792FAA5
:102F1000102409E0002C0ADB0A220023FDF7C6F981
:102F2000039B30321A55641E50EA0102F2D1641C30
:102F3000039AC4F111031444119A012A03D0012207
:102F400008430DD10AE0084304D000204FF0110BD4
:102F5000119072E7A3EB0B056D1E0DE05B4504DDE0
:102F60004FF0000205F1010504E003DA4FF0000222
:102F7000A5F10105002AECD002981199C0E90231AF
:102F8000C0E9004579E70000000014400000F03F70
:102F9000300000000000F0430000E03F2DE9FF4F4B
:102FA00095B09B468946064600250FE2252877D135
:102FB00000242746F84A0121059400E0044316F84E
:102FC000013F203B01FA03F01042F7D130782A2864
:102FD00011D06FF02F033078A0F13002092A16D8F3
:102FE000059A44F0020402EB820203EB4202104411
:102FF000761C0590EFE759F8042B0592002A03DAB6
:10300000504244F40054059044F00204761C307899
:103010002E2816D116F8010F44F004042A280DD0EA
:103020006FF02F023078A0F13003092B09D807EB9D
:10303000870302EB4303C718761CF3E759F8047BB8
:10304000761C30786C280FD006DC4C2817D0682806
:103050000DD06A2814D104E0742810D07A280FD13A
:103060000DE044F400140AE044F4801401E044F458
:1030700040147278824202D104F58014761C761CCA
:10308000307866280BD013DC582877D009DC00286C
:1030900075D04528F6D04628F4D047281AD19DE1AE
:1030A00018E0632835D0642879D0652812D195E1DD
:1030B000702873D008DC6728F1D069286FD06E289B
:1030C0000DD06F2806D1B5E073282CD0752875D0A7
:1030D000782874D05A46179990476D1C75E1C4F34F
:1030E0000250022809D003280DD0D9F80010042876
:1030F0000DD00D6009F1040967E1D9F80010EA1755
:10310000C1E90052F6E7D9F800100D80F2E70D7022
:10311000F0E719F8041B8DF8001000208DF801006D
:10312000EA46012003E059F804AB4FF0FF30610795
:103130004FF0000102D40DE008F101018846B942C8
:103140000FDA8045F8DB1AF808100029F4D108E0FE
:1031500008F1010188468142FADB1AF808100029BB
:10316000F6D105985B46A0EB080721463846179A2A
:1031700000F094FA284400EB080507E04DE029E14F
:103180000DE01AF8010B5A4617999047B8F101085B
:10319000F7D25B4621463846179A13E142E00A22ED
:1031A0000092C4F302524FF0000A022A08D059F8E4
:1031B00004CB032A4FEAEC710AD00DE029E02AE0A3
:1031C00009F1070121F00702F2E802C1914609E086
:1031D0000FFA8CFC4FEAEC71042A03D14FFA8CFCF5
:1031E0004FEAEC71002907DA0A460021DCF1000CF5
:1031F00061EB02012D2202E0220504D52B228DF87D
:103200000420012203E0E20701D02022F7E79046E4
:1032100059E00A2102E010220DE010214FF0000ACF
:1032200000910BE010224FF0000A44F0040408273C
:10323000009203E008224FF0000A0092C4F3025209
:10324000022A05D059F804CB0021032A08D009E04E
:1032500009F1070121F00702F2E802C1914605E0F9
:103260001FFA8CFC042A01D10CF0FF0C4FF000086F
:10327000220728D5702806D0009B83F0100353EA5C
:103280000A0305D00EE040228DF80420012208E058
:103290005CEA010206D030228DF804208DF805008A
:1032A00002229046009B83F0080353EA0A030AD1E6
:1032B0005CEA010201D1620705D530228DF80420B5
:1032C0004FF001087F1E582804D034A003900EA8A8
:1032D00002900DE036A0F9E753466046009AFCF7ED
:1032E000E5FF84460398825C0298401E02900270BB
:1032F0005CEA0100F0D1029806A9081A00F1200A40
:10330000600702D524F4803400E00127574502DD30
:10331000A7EB0A0000E0002000EB0A0100900598EE
:103320004144401A0590E00306D45B462146179AB3
:10333000059800F0B3F90544002706E001A85A46B5
:10334000C05D179990476D1C7F1C4745F6DBE00375
:103350000CD55B462146179A059800F09FF9054465
:1033600004E030205A46179990476D1C0099481E7A
:1033700000900029F5DC08E0029802995A4600788E
:10338000491C0291179990476D1CBAF10001AAF1EE
:10339000010AF1DC65E10000092801003031323317
:1033A0003435363738396162636465660000000081
:1033B000303132333435363738394142434445466B
:1033C0000000000000F058F90544761C3078002811
:1033D0007FF4ECAD19B02846BDE8F08F620700D449
:1033E000062709F1070222F0070CFCE80223E14658
:1033F00003F000485FEA080C02D00FF2702C0DE0D9
:103400005FEA045C02D50FF2682C07E05FEAC47C37
:1034100002D00FF2602C01E0AFF2700C4FF0FF38D9
:1034200023F00043CDF850C065280CD006DC4528B9
:1034300009D046281DD047283DD13DE0662818D048
:1034400067287ED138E00021112F01DB112000E038
:10345000781CCDE9000106A90EA8FFF7DDFCDDE927
:103460000F010E9A03910021009207F1010A0491C5
:103470004DE04FF000400097CDE9011006A90EA8DD
:10348000FFF7CAFCDDE90F0203920E9B119900229F
:10349000DDF80CA00093049211B9791C00EB010A2D
:1034A000B7EB0A0004D4C0F1FF3007F1010A049021
:1034B000AAEB0700019044E0012F00DA0127002168
:1034C000112F01DD112000E03846CDE9000106A9E9
:1034D0000EA8FFF7A1FCDDE90F010E9A0391002170
:1034E00004910092BA4621070CD40399514500DAA1
:1034F0008A46BAF1010F05DD009AAAF10101515C7B
:10350000302908D0B84202DA10F1040F06DA01219E
:10351000CDE9011015E0AAF10101E9E7002805DC79
:10352000049901440491AAEB000102E0411C5145B9
:1035300000DD8A460499401A401C01904FF000407B
:103540000290200704D40198504501DBCDF8048097
:1035500000208DF84F0002980DF14F07B0F1004F99
:1035600025D02B200E9002984FF0020800280CDA8C
:10357000404202902D200E9007E00A210298FCF7AD
:1035800071FF3031029007F8011DB8F10001A8F178
:103590000108F2DC02980028EFD1791E0E9808701D
:1035A000307800F0200040F0450007F8020D12A826
:1035B000C01B00F107081498007800B1012000EB4F
:1035C0000A01019801EBE07105984144401A401E40
:1035D0000590E00306D45B462146179A059800F053
:1035E0005DF805441498007818B15A461799904729
:1035F0006D1CE00324D55B462146179A059800F020
:103600004DF805441CE00498002807DBDDE90301C0
:10361000884203DD0098405C179901E0179930203B
:103620005A469047049805F10105401C0490019802
:10363000401E019004D12E205A46179990476D1CC8
:10364000BAF10001AAF1010ADDDC05E017F8010B6F
:103650005A46179990476D1CB8F10001A8F101086E
:10366000F4DC5B462146179A0598ABE62D00000076
:103670002B000000200000002DE9F0410446002549
:103680001E461746880404D405E039462020B0477A
:103690006D1C641EF9D52846BDE8F0812DE9F04186
:1036A000044600251E469046C80301D5302700E099
:1036B0002027880404D505E041463846B0476D1CF4
:1036C000641EF9D52846BDE8F0814A68002A06D074
:1036D0000A68531C0B6010704868401E48607047B1
:1036E0004FF47A71484300F001B8000010B584B27D
:1036F0000848FEF703F8074801684C62006801E0DB
:10370000416A8CB2002CFBD1BDE810400148FEF7A5
:1037100002B80000F000002003490A685206FCD5F8
:10372000C2B24A607047000000100140FDF738FC4B
:10373000FFF740F8FEF72AFFFEF712FFFEF7B0FF93
:10374000FEF774FF02E00FA0FFF730FBFDF730F942
:103750000028F8D110A0FFF729FB15A0FFF726FBE2
:10376000FEF796F910B119A0FFF720FB1DA0FFF797
:103770001DFBFDF75FF810B120A0FFF717FBFEF768
:10378000B1FCFEE74448543131B3F5CABCBBAFCA03
:10379000A7B0DC200D0A0000D3B2BCFEB3F5CABC52
:1037A000BBAFB3C9B9A6A3A1A3A10D0A0000000035
:1037B0004C6974654F53C4DABACBB3F5CABCBBAF1E
:1037C000D6D02E2E2E2E2E2E0D0A0000C4DABACB05
:1037D000B3F5CABCBBAFCAA7B0DC2E2E2E2E0D0A85
:1037E00000000000C4DABACBB3F5CABCBBAFB3C9A2
:1037F000B9A6A3A1A3A10D0A00000000C8CECEF176
:10380000B4B4BDA8CAA7B0DC2E2E2E2E0D0A00001F
:1038100010B586B0044614216846FCF791FD694650
:10382000204600F0B1F906B010BD4A0900EB820253
:103830000068121D884206D901F01F03012110689B
:10384000994088431060704730B502C81F314B095A
:1038500000210A4614E00468641C0FD00468E343A6
:1038600001E05B08491C002BFBD14B1E01259D404C
:103870002C43046001EB4210401E30BD001D521C61
:103880009A42E8D34FF0FF3030BD02688A4201D837
:10389000002070474A0900EB820001F01F024068D7
:1038A000012191400840F4D00120704770B50546D1
:1038B00001600C4601F11F00C108281DFCF740FD06
:1038C000E00608D004F01F014FF0FF308840610986
:1038D00005EB8101486070BD2DE9F04100240D46E3
:1038E0002746061E5ED0FCF791FC8046ED1C25F0B5
:1038F0000305706810E041684A000CD421F0404193
:10390000A94208D324B1626822F040428A4202D917
:103910000446A94221D000680028ECD1ECB36068CD
:1039200020F04040401B082817D9621952F80C0FAC
:1039300020F0804042F804096168491B083961F3AE
:103940001D00C2E900402146304600F012F928B3BC
:103950000260606865F31D00606054F8040F20F099
:10396000004040F0804001C4144827468168294443
:1039700008318160C268914200D9C1600168491C68
:1039800001607068406820F04040B0F5806F02D25E
:103990003046FFF73DFF404601E005E00CE0FCF754
:1039A0003DFC3846BDE8F08105A0FFF7FFF9294648
:1039B00005A0FFF7FBF9E4E77260CAE7D400002036
:1039C0005B4552525D200000746865726527732064
:1039D0006E6F7420656E6F7567682077686F6C65B1
:1039E00020746F20616C6C6F63202578204279749D
:1039F0006573210A0000000070B5144628B121B19A
:103A0000042C02D3651E2C4201D0002070BD21443D
:103A1000091FFFF761FF0028F8D00119491EA943CB
:103A20008842F3D0081A40F0004041F8040C0846E0
:103A300070BD00002DE9F04101260C46050018D0AC
:103A4000BCB154F8040C002802DA20F000400C1A33
:103A50002868A04203D868680830A0420BD22EA084
:103A6000FFF7A4F921462EA0FFF7A0F90020BDE83A
:103A7000F0810120FBE7FCF7C9FBA4F1080207462F
:103A8000506840000ED5286890420DD011688142E0
:103A900008D368680830814204D8284600F069F8E5
:103AA000904201D0002631E05068224B20F0804047
:103AB00020F040415060986801F10804844204D825
:103AC000401A0838986000E00246106868B1416802
:103AD0004900F9D509E054682144083161F31D0417
:103AE00054606968814200D16A601146284600F03E
:103AF00040F810B141684C00EDD51146284600F061
:103B000038F800B102605868401C58603846FCF72D
:103B100085FB3046ABE700005B4552525D2000005C
:103B200030782578206F7574206F662072616E671B
:103B300065210A00D400002070B50E460446050039
:103B400001D0582E01D8002070BD2046FCF7F8FBAC
:103B500050342C60C5E901466068583E20F0804032
:103B6000606000202060606866F31D0060600120D6
:103B700070BD4068884201D100207047486820F03D
:103B8000404008440830704730B5002278B171B128
:103B9000436807E05C68650003D524F04044224494
:103BA00008321B68002BF5D18368934201D20120B3
:103BB00030BD4A6080680860801A886003480268E7
:103BC000CA6040680861002030BD0000D4000020B9
:103BD000FEE7000000B587B018216846FCF7B0FB8F
:103BE000074800904FF4A060039006A004901F20A7
:103BF000ADF8040069460648FEF792FA07B000BD2A
:103C0000D13B000849646C65436F72653030300009
:103C100058000020EFF30580704700000248034978
:103C2000091AFDF7FFBF000068070020000001200F
:103C30002DE9F04111484FF4B47140600060104824
:103C40000068FDF7C6FF0D4D2D1F286098B10024B8
:103C500026462F1D296804EB440001EBC0014C608F
:103C600001F8086B3868FDF792FF641C0F2CF1D344
:103C70000020BDE8F0810348FBE70000B000002011
:103C8000E8000020001D0002D0E900121160D0E918
:103C900000124A6000214160016030F8221C074890
:103CA000426802EBC1025368934205D14FF00042D3
:103CB000CA40016891430160704700002000002065
:103CC0000A4B10B55A6802EBC1025468944205D100
:103CD0004FF00044CC4019680C431C6011684A68DE
:103CE000C0E900124A681060486010BD2000002042
:103CF00010B50A4800244FF480710068FDF769FF91
:103D000007490028486007D0486800EBC400641CDD
:103D100040600060202CF7D310BD0000E8000020B8
:103D2000200000200749034600204A6802EBC30137
:103D300002EBC302496801E04968401C8A42FBD19A
:103D400070470000200000200548016831B140683C
:103D5000B1FA81F100EBC100406870470020704764
:103D6000200000202DE9F0411E460446134611F0C4
:103D700003004FF000050BD0012812D0032817D004
:103D800022A0FFF713F8BDE8F04122A0FFF70EB81C
:103D9000A089E788421CBA4201D1A58110E0A28126
:103DA0000EE0A08900B9E088401EA08180B207E043
:103DB000E089E788421CBA4201D1E58100E0E28156
:103DC0002289256800FB025548074FEAC17007D5D4
:103DD00018B118682860BDE8F08128681860FAE713
:103DE00050B1194628463268FCF791FA20892D1FF8
:103DF000284431680160EEE7281F10442946046812
:103E000018462246FCF783FA3460E4E75B455252D9
:103E10005D200000696E76616C696420717565755E
:103E200065206F7065726174652074797065210A10
:103E30000000000070B513484FF4DC7421460068A0
:103E4000FDF7C7FE104D2860D0B12146FCF778FA87
:103E5000281D0024406000604FEA000604EB440087
:103E6000296800EBC40001EB80014C811C313068F3
:103E7000FDF794FE641CA4B20A2CEFD3002070BDA1
:103E8000024870BDE8000020B800002001060002D2
:103E90002DE9FF5F9A460F460446002501F0010612
:103EA000DDF838B0FCF7B2F94F49814604EB440025
:103EB000096800EBC40001EB8004A08850B1F8074A
:103EC0002089DAF80010A0F1040006D0814209D957
:103ED000464D83E0454D0B3D80E0814202D2434D8B
:103EE0000A357BE004EB4600018A91B1491E01824C
:103EF000534639462046029AFFF734FF002E37D04A
:103F00004FF0000004EBC000816934D14FF0010094
:103F100032E0BBF1000F05D03548008850B1334D79
:103F20000F3D5BE0F80702D0304D6D1C56E02F4D81
:103F3000083553E02F485A464FF40051D0F800801E
:103F400004EBC600143000F01BFD4846FCF766F990
:103F5000FEF7A8F8FCF75AF98146B8F804004106C4
:103F6000C6D5224D20F04001A8F804100E3D35E0E2
:103F70004FF00100C6E7002004EBC000143081427E
:103F800015D096B15FF0000004EBC0004FF4005173
:103F90008069283800F01AFD4846FCF73FF9FEF723
:103FA00081F8002004B0BDE8F09F0120ECE7002E6E
:103FB0000CD000BF4FF0000004EB4000008A00F17D
:103FC000010080B205D14FF0010104E04FF0010083
:103FD000F2E74FF0000104EB410108824846FCF78C
:103FE0001DF92846DEE70000B80000201506000293
:103FF000440000206400002010B50A2801D30A48BC
:1040000010BD49B142B1106848B15BB1FFF702FE83
:1040100040B105480A3010BD0348401C10BD02489D
:10402000801C10BD002010BD0E06000210B50A282D
:1040300001D30A4810BD41B1106848B15BB1FFF728
:10404000E9FD40B10548401F10BD0448001D10BDEA
:104050000248401D10BD002010BD00000E060002E9
:10406000FCF7DFB82DE9F04110484FF4A071406033
:1040700000600F480068FDF7ACFD0C4D2D1F286057
:1040800090B1002426462F1D286800EB0411CC8037
:1040900021F8086B3868FDF788FD641CA4B2142C65
:1040A000F2D30020BDE8F0810248FBE7C800002001
:1040B000E80000200007000210B504468068FFF702
:1040C000C3FB002801DA002010BDD4E9001201FB77
:1040D000002010BD10B503464068081A1968B0FBEF
:1040E000F1F4B0FBF1F201FB120068B998680168C5
:1040F000A14209D92146FFF7C8FB28B1214698689B
:10410000FFF793FB012010BD002010BD2DE9F04109
:104110001F460B4607F11F01042404EBD1018E1842
:10412000511E9D18761E6D1E8E438D4305FB076143
:104130000C31FFF7D1FB040008D004F10C00811909
:104140002560C4E901103946FFF7B0FB2046BDE801
:10415000F0814DF6DE6220F8022B00F8021B0021F0
:1041600000F8011C70471030704770B50E46FFF71D
:10417000FAFF00240546802E26D805EB04100068BF
:10418000B0421ED3FCF742F805EB04140646D4E90E
:104190000101814211D2E06878B1FFF78DFF05007F
:1041A00006D02168FFF7D5FF0546A068401CA06037
:1041B0003046FCF733F8284670BD3046FCF72EF841
:1041C00002E0641C042CD8D3002070BD2DE9F0411E
:1041D0000C46FFF7C8FF074634F8040D0026A0F58B
:1041E0005E413546DE391ED194F8020007EB051119
:1041F0000968884214D8FCF709F807EB05158046D2
:104200002146E868FFF766FF012803D1A868012668
:10421000401EA8604046FCF701F83046BDE8F0813A
:104220006D1C042DE2D30020F8E700002DE9F05FBB
:104230008346FFF798FF002407462646A1464FF025
:1042400010084FF4007A00BF08FA04F1BAFBF1F34A
:1042500007EB041585E80A02E86808B1761C05E05A
:1042600004225846091DFFF751FFE860641C042C26
:10427000EAD316B10020BDE8F09F0120FBE7000063
:10428000F8B540211A48FCF75BF81A4D1A48002788
:104290004FF4E071AF610E460068FDF79AFC040030
:1042A0001CD03146FCF74CF82C616C61278120460C
:1042B0001C340121218104602046491C89B21C3430
:1042C0001029F7D308200B4A002300900C3210214C
:1042D0001846FDF761FE20B10848F8BD0748001FE9
:1042E000F8BD00F0EFF80028FAD00448401CF8BDF3
:1042F000CC01002028000020E80000200B03000271
:104300002DE9FC4F0023591E019100910169C16004
:10431000017A5B4C01F00F065A4D54F826104FF00D
:10432000030B4FF01009AD694A461F46DC46BBEB54
:10433000517F68D141F0004144F8261021F07F4AB6
:104340000021A6465EF821C03CF07F442ED0B14249
:104350002CD0BBEB9C7F29D1D446544506D3B4FB6B
:10436000FCF80AFB184CBCF1000F0AD0D4465445A7
:104370001CD2BCFBF4F804FB18ACBCF1000F0BD052
:1043800014E0B4FBFAF8DDF804C0E0450ED2B4FB4B
:10439000FAF48946019409E0BAFBF4F8DDF800C0AC
:1043A000E04503D2BAFBF4F200920A46491C89B2F6
:1043B0001029C7D33349B9F1100F09691AD0C9EBD5
:1043C000C9042A4601EB840106E0D4680E8927441B
:1043D0001489B44203D01268002AF6D134E062B3E3
:1043E0001169CC1B0169B4FBF1F201FB1242891A7D
:1043F000C16029E0102A27D00023C2EBC202C360AB
:1044000001EB82031EE00222B2EB517F1CD141F08E
:10441000004144F82610294662460CE00E690769FF
:10442000BE4207D10E7A06F00F0654F82660B2EBB2
:10443000967F03D009680029F0D105E021B1002260
:104440000B46C26019680BE0294607E0CA68C468D9
:10445000A24205D8A21A0B46C26009680029F5D10C
:10446000016019B1CA68C468121BCA6023B1186020
:1044700002210171BDE8FC8F02498861F8E7000064
:10448000CC010020280000200EB508200C4C4FF075
:10449000FF3500902B466A4601A9E068FDF7DEFD76
:1044A0000028F7D100980828F4D101980028F1D00D
:1044B000FEF720F8DDE901108847FEF71BF8E9E771
:1044C0002800002000B587B018216846FBF738FFA8
:1044D000074800904FF48050039006A004900020FD
:1044E000ADF8040069460648FDF71AFE07B000BDA6
:1044F000894400085377745F5461736B00000000B7
:104500005C0000207CB5184D26E02068A861A069F9
:10451000009060690190002308226946E868FDF771
:10452000AEFD607920B1012810D0022814D111E02D
:10453000204600F01BF820894FF6E071884201D236
:10454000103001E000F00F00208105E02046FFF769
:10455000D7FE01E001202071AC69002C02D0E06898
:104560000028D2D07CBD00002800002006494A69FE
:104570000260486100210171007A044A00F00F00D6
:1045800042F820107047000028000020CC010020D5
:10459000054810B5806928B1C168491EC16001D1C4
:1045A000FFF7B0FF002010BD28000020F0B4024645
:1045B00011F01F034FEA511000D1401E916B1B4CAC
:1045C00001F0784101432079184400F01F0060F3A6
:1045D000DF619163216801EBC00302F1300158688B
:1045E000984201D118461DE03038956B876B25F055
:1045F000784427F07846A6420AD8A41B05F07845EF
:104600002C439463446BA4F130009C42EDD108E04C
:1046100027F0784325F078429A1A07F078431A4336
:1046200082633030F0BCFDF7D1BA00008400002076
:1046300070B5094DC0EBC00000EB4000E96801EB2C
:1046400080046169206A8847002028802069BDE8CD
:104650007040FDF77BBE00004400002072B6FEE70C
:104660002DE9F041304D5420304F2C69641C4443F7
:1046700021463868FDF7ADFADFF8B480E860E8B3AA
:104680002146FBF75DFE05F1280000244060006034
:1046900008304060006008305FF001064060006054
:1046A000C4EBC400E96800EB400001EB80011E4848
:1046B0008E800C6130302831FDF788FA641C0F2C95
:1046C000EED900266E622869E968C0EBC00000EBF5
:1046D000400001EB80011448203001600C61026849
:1046E0001121918000682021C180FFF701FB4FF468
:1046F00080710D463868FDF76CFA00E012E00400A6
:1047000010D02946FBF71CFE074840300460868025
:10471000002064602460401C08342028F9D3002065
:10472000BDE8F0814046FBE744000020E80000209F
:104730000002000310B54FF4AB710648FBF700FE12
:1047400004490A20487005480349416000218160FE
:1047500010BD00000C020020454800084400002065
:1047600070B5044600790D4640070FD504F12800C6
:104770000646FFF789FAA088E58040F00400A08093
:1047800029463046BDE87040FFF79ABAE18070BD17
:104790002DE9F0412A4800270179491C01F01F0149
:1047A0008180006800EBC1056C68AC4245D0303CAC
:1047B00004F13000A84206D0A06BA688400108D0C2
:1047C000A06B401EA063002F37D0BDE8F041FDF77D
:1047D00069BC04F13000FDF7EFF930070BD5A08874
:1047E00020F00800A08004F12800FDF7E5F9002082
:1047F000A061E06113E0700503D5A08820F480601B
:104800000CE0B00407D504F12800FDF7D5F9A08825
:1048100020F4005002E0A08820F02000A080B00723
:1048200009D4A08840F00400A080E18804F12800A9
:10483000FFF746FA01276C68B9E7BDE8F081000090
:104840008400002010B52A4C2068C0680068B0F1D0
:10485000CC3F08D027A0FEF7A9FA20680269416A78
:1048600026A0FEF7A3FA6068C2680168914203D9E6
:1048700080681044884211D21EA0FEF797FA606843
:104880000269416A27A0FEF791FA1AA0FEF78EFA94
:104890006068C26801682CA0FEF788FA6068374C2F
:1048A000018A227804EB42025180416A207820225A
:1048B00004EB40101630FBF72AFD2178002004EBB2
:1048C000411181F835002178491CC9B221700A29AB
:1048D00004D12070607840F0800060700448203877
:1048E0008068002802D0BDE81040004710BD0000DD
:1048F000640000205B4552525D2000004355525237
:10490000454E54207461736B2049443A2025733A14
:10491000256420737461636B206F766572666C6FBB
:1049200077210A0048494748455354207461736B06
:104930002049443A2025733A25642053502065725B
:10494000726F72210A0000004849474845535420BD
:104950007461736B20537461636B506F696E74651F
:10496000723A203078257820546F704F6653746106
:10497000636B3A20307825780A0000000C02002092
:104980002DE9F0418046104816460F46046804F1B0
:1049900028000546FFF778F9A088294620F0040092
:1049A0003843A0804046FDF711F9701C09D0A0885B
:1049B000314640F04000A0802046BDE8F041FFF7BE
:1049C000F5BDBDE8F08100006400002070B504462C
:1049D00028300D460646FDF7EFF8A088A843A080D2
:1049E000400606D5204600F05DF8A08820F0400083
:1049F000A080A088810708D440F00400A080E1884E
:104A00003046BDE87040FFF75BB970BD084810B58F
:104A1000D0E90221521C41F10001C0E9022100F05D
:104A20005BF8FFF7B5FEBDE81040FFF7B1BD000031
:104A300090000020154810B5006818B14FF47A7145
:104A4000884201D2124810BDB0FBF1F2114B124C5A
:104A5000B0FBF1F01A600022C4E900220122401EDE
:104A6000B0F1807F02D30A48801C10BD4FF0E021D6
:104A700048610A4BF02083F8140D0020886107205C
:104A8000086107480260002010BD00001C000020E3
:104A900000040002A0000020980000200FE000E0C9
:104AA0008C00002030B40B4B826B1B68D10E03EBE3
:104AB000C103416B994209D08B6822F0784223F000
:104AC0007844224403F078431A438A6030BC303083
:104AD000FDF772B8840000200B480A4902680B48B1
:104AE0000B680068934204D00A60CB88421E1A44C7
:104AF0008A808A8880B2824203D100200860FDF754
:104B0000C1BC7047A4000020640000209800002071
:104B10000248002101600A21C1807047A4000020E2
:104B200070B5144605460E464FF0CA322046FBF7D4
:104B300000FC4FF0CC302060A0194FF0043140F859
:104B4000481D4FF0053141604FF0063181604FF054
:104B50000731C1604FF0083101614FF00931416107
:104B60004FF0103181614FF01131C16100210162BC
:104B7000C91EC0E909154FF00131C1624900016346
:104B80004FF0033141634FF0123181630349C16338
:104B9000034901644FF08071416470BD5D460008B7
:104BA000314600080006101600061016000000002E
:104BB00000000000010203040607080900000000CD
:104BC00001020304E44B000800000020F000000094
:104BD000F82D0008D44C0008F000002078060000F2
:104BE000082E000800000000000000000000000087
:104BF00000000000010000001000000000000000A4
:104C00000024F4000000000000000000000000008C
:104C10000000000000000000000000000000000094
:104C20000000000000000000000000000000000084
:104C30000000000000000000000000000000000074
:104C40000000000000000000000000000000000064
:104C50000000000000000000000000000000000054
:104C60000000000000000000000000000000000044
:104C70000000000000000000000000000000000034
:104C80000000000000000000000000000000000024
:104C90000000000000000000000000000000000014
:104CA0000000000000000000000000000000000004
:104CB00000000000000000000000000000000000F4
:104CC00000000000000000000000000000000000E4
:044CD00000000000E0
:040000050800018965
:00000001FF
